{
  "_format": "hh-sol-artifact-1",
  "contractName": "nUSDT",
  "sourceName": "contracts/NUSDT.sol",
  "abi": [
    {
      "inputs": [],
      "stateMutability": "nonpayable",
      "type": "constructor"
    },
    {
      "anonymous": false,
      "inputs": [
        {
          "indexed": true,
          "internalType": "address",
          "name": "owner",
          "type": "address"
        },
        {
          "indexed": true,
          "internalType": "address",
          "name": "spender",
          "type": "address"
        },
        {
          "indexed": false,
          "internalType": "uint256",
          "name": "value",
          "type": "uint256"
        }
      ],
      "name": "Approval",
      "type": "event"
    },
    {
      "anonymous": false,
      "inputs": [
        {
          "indexed": true,
          "internalType": "address",
          "name": "from",
          "type": "address"
        },
        {
          "indexed": true,
          "internalType": "address",
          "name": "to",
          "type": "address"
        },
        {
          "indexed": false,
          "internalType": "uint256",
          "name": "value",
          "type": "uint256"
        }
      ],
      "name": "Transfer",
      "type": "event"
    },
    {
      "inputs": [
        {
          "internalType": "address",
          "name": "owner",
          "type": "address"
        },
        {
          "internalType": "address",
          "name": "spender",
          "type": "address"
        }
      ],
      "name": "allowance",
      "outputs": [
        {
          "internalType": "uint256",
          "name": "",
          "type": "uint256"
        }
      ],
      "stateMutability": "view",
      "type": "function"
    },
    {
      "inputs": [
        {
          "internalType": "address",
          "name": "spender",
          "type": "address"
        },
        {
          "internalType": "uint256",
          "name": "amount",
          "type": "uint256"
        }
      ],
      "name": "approve",
      "outputs": [
        {
          "internalType": "bool",
          "name": "",
          "type": "bool"
        }
      ],
      "stateMutability": "nonpayable",
      "type": "function"
    },
    {
      "inputs": [
        {
          "internalType": "address",
          "name": "account",
          "type": "address"
        }
      ],
      "name": "balanceOf",
      "outputs": [
        {
          "internalType": "uint256",
          "name": "",
          "type": "uint256"
        }
      ],
      "stateMutability": "view",
      "type": "function"
    },
    {
      "inputs": [],
      "name": "decimals",
      "outputs": [
        {
          "internalType": "uint8",
          "name": "",
          "type": "uint8"
        }
      ],
      "stateMutability": "view",
      "type": "function"
    },
    {
      "inputs": [
        {
          "internalType": "address",
          "name": "spender",
          "type": "address"
        },
        {
          "internalType": "uint256",
          "name": "subtractedValue",
          "type": "uint256"
        }
      ],
      "name": "decreaseAllowance",
      "outputs": [
        {
          "internalType": "bool",
          "name": "",
          "type": "bool"
        }
      ],
      "stateMutability": "nonpayable",
      "type": "function"
    },
    {
      "inputs": [],
      "name": "deposit",
      "outputs": [],
      "stateMutability": "payable",
      "type": "function"
    },
    {
      "inputs": [],
      "name": "getLatestData",
      "outputs": [
        {
          "internalType": "int256",
          "name": "",
          "type": "int256"
        }
      ],
      "stateMutability": "view",
      "type": "function"
    },
    {
      "inputs": [
        {
          "internalType": "address",
          "name": "spender",
          "type": "address"
        },
        {
          "internalType": "uint256",
          "name": "addedValue",
          "type": "uint256"
        }
      ],
      "name": "increaseAllowance",
      "outputs": [
        {
          "internalType": "bool",
          "name": "",
          "type": "bool"
        }
      ],
      "stateMutability": "nonpayable",
      "type": "function"
    },
    {
      "inputs": [],
      "name": "name",
      "outputs": [
        {
          "internalType": "string",
          "name": "",
          "type": "string"
        }
      ],
      "stateMutability": "view",
      "type": "function"
    },
    {
      "inputs": [
        {
          "internalType": "uint256",
          "name": "_amount",
          "type": "uint256"
        }
      ],
      "name": "redeem",
      "outputs": [],
      "stateMutability": "nonpayable",
      "type": "function"
    },
    {
      "inputs": [],
      "name": "symbol",
      "outputs": [
        {
          "internalType": "string",
          "name": "",
          "type": "string"
        }
      ],
      "stateMutability": "view",
      "type": "function"
    },
    {
      "inputs": [],
      "name": "totalSupply",
      "outputs": [
        {
          "internalType": "uint256",
          "name": "",
          "type": "uint256"
        }
      ],
      "stateMutability": "view",
      "type": "function"
    },
    {
      "inputs": [
        {
          "internalType": "address",
          "name": "to",
          "type": "address"
        },
        {
          "internalType": "uint256",
          "name": "amount",
          "type": "uint256"
        }
      ],
      "name": "transfer",
      "outputs": [
        {
          "internalType": "bool",
          "name": "",
          "type": "bool"
        }
      ],
      "stateMutability": "nonpayable",
      "type": "function"
    },
    {
      "inputs": [
        {
          "internalType": "address",
          "name": "from",
          "type": "address"
        },
        {
          "internalType": "address",
          "name": "to",
          "type": "address"
        },
        {
          "internalType": "uint256",
          "name": "amount",
          "type": "uint256"
        }
      ],
      "name": "transferFrom",
      "outputs": [
        {
          "internalType": "bool",
          "name": "",
          "type": "bool"
        }
      ],
      "stateMutability": "nonpayable",
      "type": "function"
    }
  ],
  "bytecode": "0x60806040523480156200001157600080fd5b506040518060400160405280600881526020017f4e657720555344540000000000000000000000000000000000000000000000008152506040518060400160405280600581526020017f6e5553445400000000000000000000000000000000000000000000000000000081525081600390816200008f919062000381565b508060049081620000a1919062000381565b505050600160058190555073694aa1769357215de4fac081bf1f309adc325306600660006101000a81548173ffffffffffffffffffffffffffffffffffffffff021916908373ffffffffffffffffffffffffffffffffffffffff16021790555062000468565b600081519050919050565b7f4e487b7100000000000000000000000000000000000000000000000000000000600052604160045260246000fd5b7f4e487b7100000000000000000000000000000000000000000000000000000000600052602260045260246000fd5b600060028204905060018216806200018957607f821691505b6020821081036200019f576200019e62000141565b5b50919050565b60008190508160005260206000209050919050565b60006020601f8301049050919050565b600082821b905092915050565b600060088302620002097fffffffffffffffffffffffffffffffffffffffffffffffffffffffffffffffff82620001ca565b620002158683620001ca565b95508019841693508086168417925050509392505050565b6000819050919050565b6000819050919050565b6000620002626200025c62000256846200022d565b62000237565b6200022d565b9050919050565b6000819050919050565b6200027e8362000241565b620002966200028d8262000269565b848454620001d7565b825550505050565b600090565b620002ad6200029e565b620002ba81848462000273565b505050565b5b81811015620002e257620002d6600082620002a3565b600181019050620002c0565b5050565b601f8211156200033157620002fb81620001a5565b6200030684620001ba565b8101602085101562000316578190505b6200032e6200032585620001ba565b830182620002bf565b50505b505050565b600082821c905092915050565b6000620003566000198460080262000336565b1980831691505092915050565b600062000371838362000343565b9150826002028217905092915050565b6200038c8262000107565b67ffffffffffffffff811115620003a857620003a762000112565b5b620003b4825462000170565b620003c1828285620002e6565b600060209050601f831160018114620003f95760008415620003e4578287015190505b620003f0858262000363565b86555062000460565b601f1984166200040986620001a5565b60005b8281101562000433578489015182556001820191506020850194506020810190506200040c565b868310156200045357848901516200044f601f89168262000343565b8355505b6001600288020188555050505b505050505050565b61207d80620004786000396000f3fe6080604052600436106100dd5760003560e01c806395d89b411161007f578063ab757d6111610059578063ab757d61146102fc578063d0e30db014610327578063db006a7514610331578063dd62ed3e1461035a576100dd565b806395d89b4114610257578063a457c2d714610282578063a9059cbb146102bf576100dd565b806323b872dd116100bb57806323b872dd14610175578063313ce567146101b257806339509351146101dd57806370a082311461021a576100dd565b806306fdde03146100e2578063095ea7b31461010d57806318160ddd1461014a575b600080fd5b3480156100ee57600080fd5b506100f7610397565b60405161010491906112a5565b60405180910390f35b34801561011957600080fd5b50610134600480360381019061012f9190611360565b610429565b60405161014191906113bb565b60405180910390f35b34801561015657600080fd5b5061015f61044c565b60405161016c91906113e5565b60405180910390f35b34801561018157600080fd5b5061019c60048036038101906101979190611400565b610456565b6040516101a991906113bb565b60405180910390f35b3480156101be57600080fd5b506101c7610485565b6040516101d4919061146f565b60405180910390f35b3480156101e957600080fd5b5061020460048036038101906101ff9190611360565b61048e565b60405161021191906113bb565b60405180910390f35b34801561022657600080fd5b50610241600480360381019061023c919061148a565b6104c5565b60405161024e91906113e5565b60405180910390f35b34801561026357600080fd5b5061026c61050d565b60405161027991906112a5565b60405180910390f35b34801561028e57600080fd5b506102a960048036038101906102a49190611360565b61059f565b6040516102b691906113bb565b60405180910390f35b3480156102cb57600080fd5b506102e660048036038101906102e19190611360565b610616565b6040516102f391906113bb565b60405180910390f35b34801561030857600080fd5b50610311610639565b60405161031e91906114d0565b60405180910390f35b61032f6106e6565b005b34801561033d57600080fd5b50610358600480360381019061035391906114eb565b6107c1565b005b34801561036657600080fd5b50610381600480360381019061037c9190611518565b610935565b60405161038e91906113e5565b60405180910390f35b6060600380546103a690611587565b80601f01602080910402602001604051908101604052809291908181526020018280546103d290611587565b801561041f5780601f106103f45761010080835404028352916020019161041f565b820191906000526020600020905b81548152906001019060200180831161040257829003601f168201915b5050505050905090565b6000806104346109bc565b90506104418185856109c4565b600191505092915050565b6000600254905090565b6000806104616109bc565b905061046e858285610b8d565b610479858585610c19565b60019150509392505050565b60006012905090565b6000806104996109bc565b90506104ba8185856104ab8589610935565b6104b591906115e7565b6109c4565b600191505092915050565b60008060008373ffffffffffffffffffffffffffffffffffffffff1673ffffffffffffffffffffffffffffffffffffffff168152602001908152602001600020549050919050565b60606004805461051c90611587565b80601f016020809104026020016040519081016040528092919081815260200182805461054890611587565b80156105955780601f1061056a57610100808354040283529160200191610595565b820191906000526020600020905b81548152906001019060200180831161057857829003601f168201915b5050505050905090565b6000806105aa6109bc565b905060006105b88286610935565b9050838110156105fd576040517f08c379a00000000000000000000000000000000000000000000000000000000081526004016105f49061168d565b60405180910390fd5b61060a82868684036109c4565b60019250505092915050565b6000806106216109bc565b905061062e818585610c19565b600191505092915050565b600080600660009054906101000a900473ffffffffffffffffffffffffffffffffffffffff1673ffffffffffffffffffffffffffffffffffffffff1663feaf968c6040518163ffffffff1660e01b815260040160a060405180830381865afa1580156106a9573d6000803e3d6000fd5b505050506040513d601f19601f820116820180604052508101906106cd9190611730565b5050509150506002816106e091906117da565b91505090565b6106ee610e8f565b600034905060008111610736576040517f08c379a000000000000000000000000000000000000000000000000000000000815260040161072d90611890565b60405180910390fd5b60003390506000610745610639565b90506000811361078a576040517f08c379a000000000000000000000000000000000000000000000000000000000815260040161078190611922565b60405180910390fd5b60006305f5e100828561079d9190611942565b6107a79190611984565b90506107b38382610ede565b505050506107bf611034565b565b6107c9610e8f565b6000811161080c576040517f08c379a000000000000000000000000000000000000000000000000000000000815260040161080390611a01565b60405180910390fd5b600033905060006402540be400610821610639565b61082b9190611a21565b905060008113610870576040517f08c379a000000000000000000000000000000000000000000000000000000000815260040161086790611922565b60405180910390fd5b600081670de0b6b3a7640000856108879190611942565b6108919190611984565b9050804710156108d6576040517f08c379a00000000000000000000000000000000000000000000000000000000081526004016108cd90611ae5565b60405180910390fd5b6108e0838561103e565b8273ffffffffffffffffffffffffffffffffffffffff166108fc829081150290604051600060405180830381858888f19350505050158015610926573d6000803e3d6000fd5b50505050610932611034565b50565b6000600160008473ffffffffffffffffffffffffffffffffffffffff1673ffffffffffffffffffffffffffffffffffffffff16815260200190815260200160002060008373ffffffffffffffffffffffffffffffffffffffff1673ffffffffffffffffffffffffffffffffffffffff16815260200190815260200160002054905092915050565b600033905090565b600073ffffffffffffffffffffffffffffffffffffffff168373ffffffffffffffffffffffffffffffffffffffff1603610a33576040517f08c379a0000000000000000000000000000000000000000000000000000000008152600401610a2a90611b77565b60405180910390fd5b600073ffffffffffffffffffffffffffffffffffffffff168273ffffffffffffffffffffffffffffffffffffffff1603610aa2576040517f08c379a0000000000000000000000000000000000000000000000000000000008152600401610a9990611c09565b60405180910390fd5b80600160008573ffffffffffffffffffffffffffffffffffffffff1673ffffffffffffffffffffffffffffffffffffffff16815260200190815260200160002060008473ffffffffffffffffffffffffffffffffffffffff1673ffffffffffffffffffffffffffffffffffffffff168152602001908152602001600020819055508173ffffffffffffffffffffffffffffffffffffffff168373ffffffffffffffffffffffffffffffffffffffff167f8c5be1e5ebec7d5bd14f71427d1e84f3dd0314c0f7b2291e5b200ac8c7c3b92583604051610b8091906113e5565b60405180910390a3505050565b6000610b998484610935565b90507fffffffffffffffffffffffffffffffffffffffffffffffffffffffffffffffff8114610c135781811015610c05576040517f08c379a0000000000000000000000000000000000000000000000000000000008152600401610bfc90611c75565b60405180910390fd5b610c1284848484036109c4565b5b50505050565b600073ffffffffffffffffffffffffffffffffffffffff168373ffffffffffffffffffffffffffffffffffffffff1603610c88576040517f08c379a0000000000000000000000000000000000000000000000000000000008152600401610c7f90611d07565b60405180910390fd5b600073ffffffffffffffffffffffffffffffffffffffff168273ffffffffffffffffffffffffffffffffffffffff1603610cf7576040517f08c379a0000000000000000000000000000000000000000000000000000000008152600401610cee90611d99565b60405180910390fd5b610d0283838361120b565b60008060008573ffffffffffffffffffffffffffffffffffffffff1673ffffffffffffffffffffffffffffffffffffffff16815260200190815260200160002054905081811015610d88576040517f08c379a0000000000000000000000000000000000000000000000000000000008152600401610d7f90611e2b565b60405180910390fd5b8181036000808673ffffffffffffffffffffffffffffffffffffffff1673ffffffffffffffffffffffffffffffffffffffff16815260200190815260200160002081905550816000808573ffffffffffffffffffffffffffffffffffffffff1673ffffffffffffffffffffffffffffffffffffffff168152602001908152602001600020600082825401925050819055508273ffffffffffffffffffffffffffffffffffffffff168473ffffffffffffffffffffffffffffffffffffffff167fddf252ad1be2c89b69c2b068fc378daa952ba7f163c4a11628f55a4df523b3ef84604051610e7691906113e5565b60405180910390a3610e89848484611210565b50505050565b600260055403610ed4576040517f08c379a0000000000000000000000000000000000000000000000000000000008152600401610ecb90611e97565b60405180910390fd5b6002600581905550565b600073ffffffffffffffffffffffffffffffffffffffff168273ffffffffffffffffffffffffffffffffffffffff1603610f4d576040517f08c379a0000000000000000000000000000000000000000000000000000000008152600401610f4490611f03565b60405180910390fd5b610f596000838361120b565b8060026000828254610f6b91906115e7565b92505081905550806000808473ffffffffffffffffffffffffffffffffffffffff1673ffffffffffffffffffffffffffffffffffffffff168152602001908152602001600020600082825401925050819055508173ffffffffffffffffffffffffffffffffffffffff16600073ffffffffffffffffffffffffffffffffffffffff167fddf252ad1be2c89b69c2b068fc378daa952ba7f163c4a11628f55a4df523b3ef8360405161101c91906113e5565b60405180910390a361103060008383611210565b5050565b6001600581905550565b600073ffffffffffffffffffffffffffffffffffffffff168273ffffffffffffffffffffffffffffffffffffffff16036110ad576040517f08c379a00000000000000000000000000000000000000000000000000000000081526004016110a490611f95565b60405180910390fd5b6110b98260008361120b565b60008060008473ffffffffffffffffffffffffffffffffffffffff1673ffffffffffffffffffffffffffffffffffffffff1681526020019081526020016000205490508181101561113f576040517f08c379a000000000000000000000000000000000000000000000000000000000815260040161113690612027565b60405180910390fd5b8181036000808573ffffffffffffffffffffffffffffffffffffffff1673ffffffffffffffffffffffffffffffffffffffff1681526020019081526020016000208190555081600260008282540392505081905550600073ffffffffffffffffffffffffffffffffffffffff168373ffffffffffffffffffffffffffffffffffffffff167fddf252ad1be2c89b69c2b068fc378daa952ba7f163c4a11628f55a4df523b3ef846040516111f291906113e5565b60405180910390a361120683600084611210565b505050565b505050565b505050565b600081519050919050565b600082825260208201905092915050565b60005b8381101561124f578082015181840152602081019050611234565b60008484015250505050565b6000601f19601f8301169050919050565b600061127782611215565b6112818185611220565b9350611291818560208601611231565b61129a8161125b565b840191505092915050565b600060208201905081810360008301526112bf818461126c565b905092915050565b600080fd5b600073ffffffffffffffffffffffffffffffffffffffff82169050919050565b60006112f7826112cc565b9050919050565b611307816112ec565b811461131257600080fd5b50565b600081359050611324816112fe565b92915050565b6000819050919050565b61133d8161132a565b811461134857600080fd5b50565b60008135905061135a81611334565b92915050565b60008060408385031215611377576113766112c7565b5b600061138585828601611315565b92505060206113968582860161134b565b9150509250929050565b60008115159050919050565b6113b5816113a0565b82525050565b60006020820190506113d060008301846113ac565b92915050565b6113df8161132a565b82525050565b60006020820190506113fa60008301846113d6565b92915050565b600080600060608486031215611419576114186112c7565b5b600061142786828701611315565b935050602061143886828701611315565b92505060406114498682870161134b565b9150509250925092565b600060ff82169050919050565b61146981611453565b82525050565b60006020820190506114846000830184611460565b92915050565b6000602082840312156114a05761149f6112c7565b5b60006114ae84828501611315565b91505092915050565b6000819050919050565b6114ca816114b7565b82525050565b60006020820190506114e560008301846114c1565b92915050565b600060208284031215611501576115006112c7565b5b600061150f8482850161134b565b91505092915050565b6000806040838503121561152f5761152e6112c7565b5b600061153d85828601611315565b925050602061154e85828601611315565b9150509250929050565b7f4e487b7100000000000000000000000000000000000000000000000000000000600052602260045260246000fd5b6000600282049050600182168061159f57607f821691505b6020821081036115b2576115b1611558565b5b50919050565b7f4e487b7100000000000000000000000000000000000000000000000000000000600052601160045260246000fd5b60006115f28261132a565b91506115fd8361132a565b9250828201905080821115611615576116146115b8565b5b92915050565b7f45524332303a2064656372656173656420616c6c6f77616e63652062656c6f7760008201527f207a65726f000000000000000000000000000000000000000000000000000000602082015250565b6000611677602583611220565b91506116828261161b565b604082019050919050565b600060208201905081810360008301526116a68161166a565b9050919050565b600069ffffffffffffffffffff82169050919050565b6116cc816116ad565b81146116d757600080fd5b50565b6000815190506116e9816116c3565b92915050565b6116f8816114b7565b811461170357600080fd5b50565b600081519050611715816116ef565b92915050565b60008151905061172a81611334565b92915050565b600080600080600060a0868803121561174c5761174b6112c7565b5b600061175a888289016116da565b955050602061176b88828901611706565b945050604061177c8882890161171b565b935050606061178d8882890161171b565b925050608061179e888289016116da565b9150509295509295909350565b7f4e487b7100000000000000000000000000000000000000000000000000000000600052601260045260246000fd5b60006117e5826114b7565b91506117f0836114b7565b925082611800576117ff6117ab565b5b600160000383147f800000000000000000000000000000000000000000000000000000000000000083141615611839576118386115b8565b5b828205905092915050565b7f6d73672e76616c75652063616e206e6f74206265207a65726f00000000000000600082015250565b600061187a601983611220565b915061188582611844565b602082019050919050565b600060208201905081810360008301526118a98161186d565b9050919050565b7f70726963652063616e206e6f74206265206e65676174697665206f72207a657260008201527f6f00000000000000000000000000000000000000000000000000000000000000602082015250565b600061190c602183611220565b9150611917826118b0565b604082019050919050565b6000602082019050818103600083015261193b816118ff565b9050919050565b600061194d8261132a565b91506119588361132a565b92508282026119668161132a565b9150828204841483151761197d5761197c6115b8565b5b5092915050565b600061198f8261132a565b915061199a8361132a565b9250826119aa576119a96117ab565b5b828204905092915050565b7f616d6f756e742073686f756c6420626520706f73697469766500000000000000600082015250565b60006119eb601983611220565b91506119f6826119b5565b602082019050919050565b60006020820190508181036000830152611a1a816119de565b9050919050565b6000611a2c826114b7565b9150611a37836114b7565b9250828202611a45816114b7565b91507f80000000000000000000000000000000000000000000000000000000000000008414600084121615611a7d57611a7c6115b8565b5b8282058414831517611a9257611a916115b8565b5b5092915050565b7f4e6f7420656e6f7567682065746865727320617661696c616265000000000000600082015250565b6000611acf601a83611220565b9150611ada82611a99565b602082019050919050565b60006020820190508181036000830152611afe81611ac2565b9050919050565b7f45524332303a20617070726f76652066726f6d20746865207a65726f2061646460008201527f7265737300000000000000000000000000000000000000000000000000000000602082015250565b6000611b61602483611220565b9150611b6c82611b05565b604082019050919050565b60006020820190508181036000830152611b9081611b54565b9050919050565b7f45524332303a20617070726f766520746f20746865207a65726f20616464726560008201527f7373000000000000000000000000000000000000000000000000000000000000602082015250565b6000611bf3602283611220565b9150611bfe82611b97565b604082019050919050565b60006020820190508181036000830152611c2281611be6565b9050919050565b7f45524332303a20696e73756666696369656e7420616c6c6f77616e6365000000600082015250565b6000611c5f601d83611220565b9150611c6a82611c29565b602082019050919050565b60006020820190508181036000830152611c8e81611c52565b9050919050565b7f45524332303a207472616e736665722066726f6d20746865207a65726f20616460008201527f6472657373000000000000000000000000000000000000000000000000000000602082015250565b6000611cf1602583611220565b9150611cfc82611c95565b604082019050919050565b60006020820190508181036000830152611d2081611ce4565b9050919050565b7f45524332303a207472616e7366657220746f20746865207a65726f206164647260008201527f6573730000000000000000000000000000000000000000000000000000000000602082015250565b6000611d83602383611220565b9150611d8e82611d27565b604082019050919050565b60006020820190508181036000830152611db281611d76565b9050919050565b7f45524332303a207472616e7366657220616d6f756e742065786365656473206260008201527f616c616e63650000000000000000000000000000000000000000000000000000602082015250565b6000611e15602683611220565b9150611e2082611db9565b604082019050919050565b60006020820190508181036000830152611e4481611e08565b9050919050565b7f5265656e7472616e637947756172643a207265656e7472616e742063616c6c00600082015250565b6000611e81601f83611220565b9150611e8c82611e4b565b602082019050919050565b60006020820190508181036000830152611eb081611e74565b9050919050565b7f45524332303a206d696e7420746f20746865207a65726f206164647265737300600082015250565b6000611eed601f83611220565b9150611ef882611eb7565b602082019050919050565b60006020820190508181036000830152611f1c81611ee0565b9050919050565b7f45524332303a206275726e2066726f6d20746865207a65726f2061646472657360008201527f7300000000000000000000000000000000000000000000000000000000000000602082015250565b6000611f7f602183611220565b9150611f8a82611f23565b604082019050919050565b60006020820190508181036000830152611fae81611f72565b9050919050565b7f45524332303a206275726e20616d6f756e7420657863656564732062616c616e60008201527f6365000000000000000000000000000000000000000000000000000000000000602082015250565b6000612011602283611220565b915061201c82611fb5565b604082019050919050565b6000602082019050818103600083015261204081612004565b905091905056fea26469706673582212200125d43c88b481911592f291476c810230631595b5ddefc731e6305a84cd3c8664736f6c63430008120033",
  "linkReferences": {},
  "deployedLinkReferences": {}
}